:020000040000FA
:1000000000040020010100000501000007010000BC
:10001000090100000B0100000D01000000000000BC
:100020000000000000000000000000000F010000C0
:100030001101000000000000130100001501000084
:100040001701000017010000170100001701000050
:100050001701000017010000170100001701000040
:100060001701000017010000170100001701000030
:100070001701000017010000170100001701000020
:100080001701000017010000170100001701000010
:100090001701000017010000170100001701000000
:1000A00017010000170100001701000017010000F0
:1000B00017010000170100001701000017010000E0
:1000C00017010000170100001701000017010000D0
:1000D00017010000170100001701000017010000C0
:1000E00017010000170100001701000017010000B0
:1000F00017010000170100001701000017010000A0
:1001000000F00AB8FEE7FEE7FEE7FEE7FEE7FEE7DF
:10011000FEE7FEE7FEE7FEE74EF20810C4F20F002E
:100120004FF03201016045F20000C4F200004FF0D0
:100130000001C0F820144FF0FF01C0F800144FF088
:10014000FF01C0F81C1544F20002C4F202024FF095
:100150000001C2F820144FF00301C2F800144FF060
:100160000401C0F810154FF00701C2F81C1545F244
:100170000007C4F2020744F24B31C4F64F41C7F8FE
:1001800020154FF01101C7F824154FF00001C7F8F2
:1001900020144FF01101C7F810154FF00001C7F8F7
:1001A00000144FF01101C7F81C1540F20003C0F213
:1001B00000034FF6FF75C0F202056FEA0303C0F8B3
:1001C000FC334FEA1324C2F8FC436FEA0303D7F869
:1001D000FC136FEA010101F01001102914D0D2F8CC
:1001E000FC136FEA010101F0040104291BD0A5F101
:1001F0000105002DEBDC03F1010340F2FF36C0F2F4
:100200000006B3420FD0D4E7D2F8FC1301F004018A
:10021000042908D0D7F8FC136FEA010101F00101AD
:0C0220000129DCD0F0E74FF00003C2E73A
:0400000500000101F5
:00000001FF
