:020000040000FA
:10000000A008002001010000050100000701000018
:10001000090100000B0100000D01000000000000BC
:100020000000000000000000000000000F010000C0
:100030001101000000000000130100001501000084
:100040001701000017010000170100001701000050
:100050001701000017010000170100001701000040
:100060001701000017010000170100001701000030
:100070001701000017010000170100001701000020
:100080001701000017010000170100001701000010
:100090001701000017010000170100001701000000
:1000A00017010000170100001701000017010000F0
:1000B00017010000170100001701000017010000E0
:1000C00017010000170100001701000017010000D0
:1000D00017010000170100001701000017010000C0
:1000E00017010000170100001701000017010000B0
:1000F00017010000170100001701000017010000A0
:1001000000F016B8FEE7FEE7FEE7FEE7FEE7FEE7D3
:10011000FEE7FEE7FEE7FEE702480349014A034B1C
:1001200070470000A0040020A0080020A0040020C8
:1001300000F002F800F03AF80AA090E8000C8244BF
:100140008344AAF10107DA4501D100F02FF8AFF29C
:10015000090EBAE80F0013F0010F18BFFB1A43F0A5
:10016000010318478C020000AC020000103A24BFC3
:1001700078C878C1FAD8520724BF30C830C144BF0C
:1001800004680C607047000000230024002500264E
:10019000103A28BF78C1FBD8520728BF30C148BFEA
:1001A0000B6070471FB51FBD10B510BD00F0E5F81E
:1001B0001146FFF7F7FF00F0C2F800F003F903B4AF
:1001C000FFF7F2FF03BC00F00BF900005E48006887
:1001D00040F030005C49086000205C49096881F803
:1001E00020045A49096881F800045848006890F8CA
:1001F0001C0540F003005549096881F81C05544866
:1002000054490860FF205449096881F824050020FA
:100210005149096881F8200401204F49096881F893
:10022000140500204C49096881F8000401204A495E
:10023000096881F81C0530204849086000204349BE
:10024000096881F804044149096881F808043F49B4
:10025000096881F80C0402203C49096881F81004FF
:1002600000203D49096881F804043B49096881F888
:10027000080401203849096881F80C0436490968E6
:1002800081F810047047704700B5012032490968B1
:1002900081F81C04FFF7F7FF00BD2C48006890F8B8
:1002A0001404022827D12949096881F81C042C4824
:1002B00000680B281EDA2A480068002815DD284847
:1002C0000068092811DA274800784010254908708D
:1002D0001E4800680079C007000E234908702148B5
:1002E0000078097808431F4908701D480068401CC1
:1002F0001B490860704700BFFCE7002100201DE09B
:1003000000BF174A1268092AFBDB164A1278F02A46
:1003100000D1022008B1401E08E0124A1278153AB6
:10032000124B9C5C0A46491C114B9C5400BF0C4A62
:1003300012680B2AFBDB0022094B1A60E0E7FFF78B
:1003400045FFFFF7DAFF000008E10F4048000020FA
:100350004B434F4C205502404C00002000E100E090
:100360003C00002039000020500000200000002048
:1003700054000020704770477047754600F02CF815
:10038000AE4605006946534620F00700854618B082
:1003900020B5FFF7C1FEBDE820404FF000064FF04A
:1003A00000074FF000084FF0000B21F00701AC46AA
:1003B000ACE8C009ACE8C009ACE8C009ACE8C009C9
:1003C0008D46704710B50446AFF300802046BDE867
:1003D0001040FFF7F4BE0000004870473C040020C6
:1003E00001491820ABBEFEE726000200704700005E
:1003F0001004000000000020540000006C01000008
:1004000064040000540000204C0800008801000033
:1004100071310000007A736177320000637864659F
:100420003433000020766674723500006E626867AF
:1004300079360000006D6A75373800002C6B696FE3
:10044000303900002E006C00700000000000000039
:100450000000000000000000004002400050024088
:040460000000000098
:0400000500000101F5
:00000001FF
