:020000040000FA
:1000000000040020010100000501000007010000BC
:10001000090100000B0100000D01000000000000BC
:100020000000000000000000000000000F010000C0
:100030001101000000000000130100001501000084
:100040001701000017010000170100001701000050
:100050001701000017010000170100001701000040
:100060001701000017010000170100001701000030
:100070001701000017010000170100001701000020
:100080001701000017010000170100001701000010
:100090001701000017010000170100001701000000
:1000A00017010000170100001701000017010000F0
:1000B00017010000170100001701000017010000E0
:1000C00017010000170100001701000017010000D0
:1000D00017010000170100001701000017010000C0
:1000E00017010000170100001701000017010000B0
:1000F00017010000170100001701000017010000A0
:1001000000F00AB8FEE7FEE7FEE7FEE7FEE7FEE7DF
:10011000FEE7FEE7FEE7FEE74EF20810C4F20F002E
:100120004FF0320101604EF20000C4F20F004FF0B8
:100130000101C0F85C1646F20000C4F203004FF063
:100140000001C1604FF0040101604FF00201416005
:1001500044F6D541C0F62F2181624FF00101C16004
:10016000C1694FF00101416245F20000C4F2000094
:100170004FF00001C0F820144FF0FF01C0F8001448
:100180004FF0FF01C0F81C1544F20000C4F2020059
:100190004FF00001C0F820144FF00301C0F8001424
:1001A0004FF00C01C0F810154FF00F01C0F81C15EE
:1001B0004FF000094FF0200B4FF0100C4FF00002F1
:1001C00045F20000C4F200004FF030016FEA010177
:1001D000C0F8FC1344F20000C4F202004FF0030127
:1001E000C16045F20000C4F20000D0F8C0106FEA10
:1001F00001016FEA020301EA8301C0F8C01041F275
:100200000023C0F27A0300F014F844F20000C4F2B4
:100210000200016B81F00C0142EA01020C2A4ED06F
:100220004EF20000CEF200000169B3EB114FECD1A9
:10023000D7E701B402B44EF20000CEF200004FF056
:100240000401016143618361016941F001010161C0
:100250004FF0010302BC01BC704701B402B404B406
:1002600008B44BEA0C036FEA030345F20000C4F242
:100270000000C0F8FC334FEA132344F20000C4F23C
:100280000200C3604BF20041C0F2C4414EF20000D4
:10029000CEF200008369984408BC04BC02BC01BCD7
:1002A000704702B442F20041C0F2F401884502DD19
:1002B000A8EB0108FAE701EB080302BC704745F21E
:1002C0000000C4F200004FF0CF01C0F8C010FFF7EB
:1002D000E8FFFFF7AEFF44F20000C4F20200016B3A
:1002E00081F00C010029F2D14EF20000CEF20000A4
:1002F00001694FEA11418B42EDD14FEA4B0B4FEAB6
:100300005C0CFFF7AAFF44F20000C4F20200016B8C
:1003100081F00C01082902D100F05DF803E0042906
:10032000F1D100F06FF844F20000C4F20200016A5B
:1003300081F008014FEAD101514506D14FEA5B0B2C
:10034000FFF78BFF09F10109C1E7016981F00401A1
:100350004FEA5101514506D14FEA4C0CFFF77DFFA2
:1003600009F10109B3E74EF20000CEF20000016985
:10037000B3EB114FD7D14FF00009BAF1010F04D1FF
:100380004FEA4C0CFFF769FF04E04FEA5B0BFFF705
:1003900064FFFFE7BBF5007F03D0BCF1010F00D085
:1003A00095E75C4665468BEA040B8CEA050CFFF783
:1003B00054FF41F20023C0F27A0300B5FFF739FF82
:1003C0005DF804EB4EF20000CEF200000169B3EBE1
:1003D000114FFBD1E7E74FEA5B0B00B5FFF73DFF9D
:1003E0005DF804EB4FF0020A4FF0000300B500F097
:1003F00020F85DF804EB2B4600B5FFF71AFF5DF817
:1004000004EB70474FEA4C0C00B5FFF726FF5DF890
:1004100004EB4FF0010A4FF0000300B500F009F8BB
:100420005DF804EB2B4600B5FFF703FF5DF804EB26
:10043000704704B44FF0500203FB02F34FF4A07571
:10044000A5EB03054FF004034B4500DD4B4625FAB1
:1004500003F543F68062C0F2000205FB02F504BC1E
:0404600070470000E1
:0400000500000101F5
:00000001FF
