:020000040000FA
:1000000000040020010100000501000007010000BC
:10001000090100000B0100000D01000000000000BC
:100020000000000000000000000000000F010000C0
:100030001101000000000000130100001501000084
:100040001701000017010000170100001701000050
:100050001701000017010000170100001701000040
:100060001701000017010000170100001701000030
:100070001701000017010000170100001701000020
:100080001701000017010000170100001701000010
:100090001701000017010000170100001701000000
:1000A00017010000170100001701000017010000F0
:1000B00017010000170100001701000017010000E0
:1000C00017010000170100001701000017010000D0
:1000D00017010000170100001701000017010000C0
:1000E00017010000170100001701000017010000B0
:1000F00017010000170100001701000017010000A0
:1001000000F014B8FEE7FEE7FEE7FEE7FEE7FEE7D5
:10011000FEE7FEE7FEE7FEE718E00F4020000000E4
:100120004B434F4C005002400E0000004EF20810AE
:10013000C4F20F004FF02001016045F20000C4F24C
:10014000020044F24B31C4F64F41C0F820154FF085
:100150001F01C0F824154FF01101C0F810154FF021
:100160000F01C0F800144FF01F01C0F81C1540F239
:100170000201C0F2000181634FF000044FF6FF75E9
:10018000C0F20F0504F10104AC42FBDD40F20401B2
:10019000C0F2000181634FF0000404F10104AC429D
:1001A000FBDD40F20801C0F200018163DFE70000DF
:0400000500000101F5
:00000001FF
